:020000040000FA
:1000000068020010650100006D0100006F01000032
:1000100000000000000000000000000000000000E0
:10002000000000000000000000000000710100005E
:1000300000000000000000007301000075010000D6
:1000400077010000770100007701000077010000D0
:1000500077010000770100007701000077010000C0
:1000600077010000770100007701000077010000B0
:1000700077010000770100007701000077010000A0
:100080007701000077010000770100007701000090
:100090007701000077010000770100007701000080
:1000A0007701000077010000770100007701000070
:1000B0007701000077010000770100007701000060
:1000C00000F002F800F03EF80CA030C80838241800
:1000D0002D18A246671EAB4654465D46AC4201D180
:1000E00000F030F87E460F3E0FCCB6460126334274
:1000F00000D0FB1AA246AB46334318473004000039
:1001000050040000103A02D378C878C1FAD85207D8
:1001100001D330C830C101D504680C6070470000BD
:100120000023002400250026103A01D378C1FBD813
:10013000520700D330C100D50B6070471FB51FBDFB
:1001400010B510BD00F0DCF81146FFF7F7FF00F026
:10015000BDF900F0F4F803B4FFF7F2FF03BC00F0C0
:10016000FBF800000748804707480047FEE7FEE726
:10017000FEE7FEE7FEE7FEE704480549034A054BB4
:1001800070470000CD030000C100000068000010AF
:100190006802001068000010002203098B422CD373
:1001A000030A8B4211D300239C464EE003460B43C7
:1001B0003CD4002243088B4231D303098B421CD329
:1001C000030A8B4201D394463FE0C3098B4201D31B
:1001D000CB01C01A524183098B4201D38B01C01A53
:1001E000524143098B4201D34B01C01A52410309CA
:1001F0008B4201D30B01C01A5241C3088B4201D379
:10020000CB00C01A524183088B4201D38B00C01A25
:10021000524143088B4201D34B00C01A5241411A4C
:1002200000D201465241104670475DE0CA0F00D02F
:100230004942031000D34042534000229C46030928
:100240008B422DD3030A8B4212D3FC22890112BAAE
:10025000030A8B420CD3890192118B4208D3890186
:1002600092118B4204D389013AD0921100E089099E
:10027000C3098B4201D3CB01C01A524183098B427F
:1002800001D38B01C01A524143098B4201D34B0168
:10029000C01A524103098B4201D30B01C01A5241CB
:1002A000C3088B4201D3CB00C01A524183088B4252
:1002B00001D38B00C01A5241D9D243088B4201D3DB
:1002C0004B00C01A5241411A00D2014663465241C6
:1002D0005B10104601D34042002B00D549427047C5
:1002E00063465B1000D3404201B50020C046C046C3
:1002F00002BD70477047704770470000FFFFFFFF67
:10030000754600F025F8AE46050069465346C0081C
:10031000C000854618B020B5FFF72EFF60BC00274F
:100320004908B6460026C0C5C0C5C0C5C0C5C0C5C1
:10033000C0C5C0C5C0C5403D49008D46704710B519
:100340000446C046C0462046FFF705FF10BD00002A
:10035000004870470400001001491820ABBEFEE7BA
:1003600026000200154800680121090408431349CA
:10037000086013488068C008C000114988600846BA
:10038000806888600D4800680121090488430B4992
:10039000086008460068012109040843074908600D
:1003A0000848006801210843064908600648C06BF8
:1003B000012108430449C86370470000808004405D
:1003C0000040044000800250C03F025008B525485C
:1003D000806B2021884323498863002022490862DA
:1003E000009003E000BF0098401C00900098C828CF
:1003F000F8D301201C494031086048600020486063
:100400000120486000BF184840304068C007C00F56
:100410000028F8D02320144988601248806B80217E
:1004200088431049886300BF0F48C068C007C00FE9
:100430000028F9D003200C494031086301204863AB
:10044000002048630120486300BF07484030406BEC
:10045000C007C00F0028F8D001200349403188634D
:1004600008BD0000008204400080044010B504462E
:1004700002200B4948600020C8607D21C90009485E
:100480000068FFF789FE60430549886101204860E4
:1004900000BF03484068C007C00F0028F9D110BD55
:1004A0000080014000000010064800680121890218
:1004B000084304490860012003490860042048619A
:1004C000704700008080044000800140FFF74AFF31
:1004D000FFF7EAFF27E07D20C000FFF7C7FF1248C3
:1004E000C06B400840001049C8637D20C000FFF782
:1004F000BDFF0D48C06B012108430B49C8637D2037
:10050000C000FFF7B3FF0848C06B022188430649CB
:10051000C8637D20C000FFF7A9FF0348C06B02211C
:1005200008430149C863D6E7C03F02504C050000AC
:10053000000000100400000004010000500500004D
:10054000040000106402000020010000006CDC02C6
:04000005000000C136
:00000001FF
